:0600000002006B0219B9B9
:03000B00021D8E45
:03001300021A0CC2
:01001B0032B2
:030023000219219E
:03002B00021F8928
:01003300329A
:03003B00021A5F47
:030043000218E2BE
:01004B003282
:0300530002196D22
:01005B003272
:03006300021F87F2
:03006600021AB3C8
:02006900E4733E
:0D006B00758139122712E5826003020066DC
:10007800794DE94400601B7A019029AC786375A03A
:1000880001E493F2A308B8000205A0D9F4DAF275E6
:02009800A0FFC7
:06009A00E478FFF6D8FD3A
:1000A0007800E84400600A799475A000E4F309D868
:1000B000FC78CFE84400600C7901900094E4F0A350
:0400C000D8FCD9FA95
:0E00C4007808E4F608F608F608F6780C7600E0
:0200D200C20367
:0200D400C20464
:0300D600020066BF
:1000DA0075E200C2AF758900123800227E007F00E7
:1000EA00C3EE9404EF648094805025EE2465F58273
:1000FA00EF3401F583E0FD90011BE4F08D82C00727
:10010A00C006121B36D006D0070EBE00D30F80D011
:10011A007E007F00C3EE9404EF6480948040030263
:10012A0001ABEE2469FCEF3401FDEE2465F582EFA4
:10013A003401F583E0F582C007C006C005C0041289
:10014A001CB2AB828B0079007A007B00900100E43C
:10015A00F0A3F0A3F0A3F090010414F0E4A3F0A339
:10016A00F0A3F0900108F0A3F0A3F0A3F090010C23
:10017A00747FF0E4A3F0A3F0A3F0888289838AF065
:10018A00EB121712A882A983AAF0FBD004D005D0DB
:10019A0006D0078C828D83E8F00EBE00010F0201A3
:1001AA001E90031212109B120D860202837E007F9C
:1001BA0000C3EE9404EF648094804003020280EE50
:1001CA002465F582EF3401F583E0F582C007C006A5
:1001DA00121CB2AD82D006D00790016DEDF0EE246C
:1001EA0069F582EF3401F583E0FB7C0090016FE052
:1001FA00F97A00C006C007E92BF8EA3CFF8D108C9B
:10020A0011C3E89510EF64808511F063F08095F0D2
:10021A00D007D0064018EBC399FBEC9AFCC3E51053
:10022A009BE51164808CF063F08095F0504090015A
:10023A006EE0FD1DEE2494F582EF3400F583E0FCB8
:10024A0090016DE0FB9000EEECF09000EFEBF08D8A
:10025A0082C007C0061214F4D006D007EE2469FC47
:10026A00EF3401FD90016DE0FB8C828D83F00EBEB0
:10027A0000010F0201BB0211C37582001218D2E5F8
:10028A008290016EF07E007F00C3EE9404EF6480DA
:10029A009480502FEE2494FCEF3400FD8E030B8BD8
:1002AA0082C007C006C005C0041218D2AB82D004AF
:1002BA00D005D006D0078C828D83EBF00EBE00C924
:1002CA000F80C62290016EE0900112F07582001232
:1002DA00189C7E007F00C3EE9404EF6480948050E3
:1002EA00268E050DEE2494F582EF3400F583E09016
:1002FA000112F08D82C007C00612189CD006D007E2
:10030A000EBE00D20F80CF221210B7AF8290009A91
:10031A00EFF0C0071210BEAE82C0061210C5AD8241
:10032A00D006D007BF0A028003020475BE660280A7
:10033A0003020475ED248050189000E9EEF0900055
:10034A00EAEDF0758203C006C005121487D005D005
:10035A0006BD2A028024BD2B028042BD2C02806287
:10036A00BD2D02807ABD2E03020405BD30030204AE
:10037A004ABD310302046A0204759001707401F0E7
:10038A009000EE7466F09000EF742AF075820AC04D
:10039A0006C0051214F4D005D006020475C006C0C2
:1003AA00051202CE9000EE7466F09000EF742BF006
:1003BA0075820A1214F4D005D006900170E4F00296
:1003CA0004759000EE7467F09000EF7428F075825F
:1003DA000AC006C0051214F4D005D00602047590AE
:1003EA0000EE7468F09000EF740AF075820AC00695
:1003FA00C0051214F4D005D00680707C007F00C3BB
:10040A00EC9404EF6480948050618C030BEC249488
:10041A00F582EF3400F583E0FA9000EEEBF09000FD
:10042A00EFEAF075820AC007C006C005C0041214BC
:10043A00F4D004D005D006D0070CBC00C20F80BF90
:10044A0090016EE0FF9000EE746AF09000EFEFF01A
:10045A0075820AC006C0051214F4D005D006800BB6
:10046A00C006C0051200DAD005D006900170E0FF80
:10047A00BF0133EE6019BE050050148E071FEF331B
:10048A0095E0FCEF2494F582EC3400F583EDF0BEA0
:10049A000514ED600BBD1000500690016EEDF022C0
:0704AA0090016E7401F022C5
:1004B200AFF0AE83E5829000A5F0EEA3F0EFA3F0DB
:1004C2009000A4E0FF7E00740F5FFCC0047410C0B3
:1004D200E0E4C0E08F828E83122650AE8215811531
:1004E20081D0049000A5E0FBA3E0FDA3E0FFEC9027
:1004F20028FC938B828D838FF0121F6C74012BF971
:10050200E43DFA8F0489828A838CF0E4121F6C74B2
:10051200022BF9E43DFA8F04EE9028FC9389828A3B
:10052200838CF0121F6C74032BFBE43DFD8B828DD8
:10053200838FF0E4021F6C903FFAE493FF903FFC3C
:10054200E493FE903FFDE493FD903FFEE493FC9024
:100552003FFFE493FB9000A4EEF090018375F0005E
:10056200C007C005C004C0031204B2D003D004D037
:10057200059000A4EDF090017F75F000C004C00367
:100582001204B2D003D0049000A4ECF090017B7569
:10059200F000C0031204B2D0039000A4EBF090016B
:1005A2007775F0001204B2D0079000A4EFF090012A
:1005B2007375F0000204B29000A8E5DBF0E0FFBF23
:1005C20008028003020AD0900007E0FE7F0090003C
:1005D20006E07C004207EC420690009EEFF0EEA39C
:1005E200F09000A8E4F0900001E0FD9000A0F090EF
:1005F2000000E054606058900000E0FC5304607B0F
:1006020000BC2005BB0002800FBC403ABB00379003
:1006120000A874FFF0020AD6BD2003020AD6BD214B
:10062200028005BD2217800F120DFAAB82AC8390B7
:1006320000A8EBF0020AD6120E25020AD69000A8F4
:1006420074FFF0020AD69000A874FFF0020AD6EDF9
:10065200FC24F45003020AC8EC240A83F582EC2439
:100662001083F583E4739B82C856C84280C85176D2
:10067200D6D60A080A090A08060A08080A0A9001D0
:1006820087E4F0900003E0FDBD0102800DBD02028F
:100692008024BD0302803B02075D9000A27403F038
:1006A2007428A3F0902815E493FC740193FD900044
:1006B200A8ECF00207639000A27417F07428A3F06C
:1006C2009028BAE493FC740193FD9000A8ECF00228
:1006D2000763900002E0701B9000A274BCF07428C3
:1006E200A3F09028C0E493FC740193FD9000A8EC61
:1006F200F0806E900002E0FDBD011B9000A274DC50
:10070200F07428A3F09028FAE493FC740193FD900E
:1007120000A8ECF0804B900002E0FDBD021B9000AF
:10072200A274C2F07428A3F09028DAE493FC740156
:1007320093FD9000A8ECF08028900002E0FDBD033C
:100742002090009B7471F07401A3F0E4A3F0900177
:100752008704F09000A87416F080069000A874FF39
:10076200F09000A8E0FDBDFF03020AD68D047D00D3
:10077200C3EC9FED9E500890009EECF0EDA3F0902C
:10078200009EE0FEA3E0FF8E048F05C3EC9408ED0B
:100792009400920040067C087D0080048E048F0540
:1007A2009000A8ECF0900187E0FFBF013C9001139C
:1007B2007471F07401A3F0E4A3F0900116ECF0E47C
:1007C200A3F090000075F000C004121AC2D0049089
:1007D200009BE0FDA3E0FEA3E0FF90009BEC2DF068
:1007E200E43EA3F0EFA3F0803B9000A2E0FEA3E082
:1007F200FF900113EEF0EFA3F07480A3F0900116C6
:10080200ECF0E4A3F090000075F000C004121AC2EC
:10081200D0049000A2E0FEA3E0FF9000A2EC2EF034
:10082200E43FA3F07F0090009EE0FDA3E0FEEDC355
:100832009CFDEE9FFE90009EEDF0EEA3F0020AD624
:10084200900002E0FF90009EF0E4A3F0020AD6902E
:1008520000A1E0900000F090009EE0FEA3E0FFC344
:10086200EE9401EF94005003020AD69000A874019E
:10087200F0020AD6900002E0FF9000A1F0020AD630
:10088200900000E0541F7037900003E0FE7F00905C
:100892000002E0FD7C004207EC4206BF0118BE00E8
:1008A2001590281EE493FF30E503020AD69000A8B3
:1008B20074FFF0020AD69000A874FFF0020AD690E4
:1008C2000000E0FF53071F7E00BF0205BE0002804A
:1008D200028078900004E0FFBF0102805FBF020245
:1008E2008049BF03028033BF0402801DBF810280A2
:1008F20040BF8202802ABF83028014BF844474BC3A
:1009020055DE4402F5DE020AD653DE73020AD674BD
:10091200BC55D64402F5D6020AD653D673020AD67D
:1009220074BC55D44402F5D4020AD653D473020AD5
:10093200D674BC55D24402F5D2020AD653D27302FF
:100942000AD69000A874FFF0020AD69000A874FF9D
:10095200F0020AD6900000E0541F7051900003E0AC
:10096200FE7F00900002E0FD7C004207EC4206BFE1
:100972000132BE002F90281EE493FF30E51DE5A250
:1009820020E7FB75A15575A1AA75A9C14387027518
:10099200A15575A1AA75A900020AD69000A874FFF4
:1009A200F0020AD69000A874FFF0020AD690000066
:1009B200E0FF53071F7E00BF0205BE000280030254
:1009C2000A93900003E0FE7F00900002E0FD7C00AD
:1009D2004207EC4206EF4E6003020A8B900005E0EC
:1009E200FE7F00900004E0FD7C004207EC4206BF5F
:1009F2000106BE0003020A79BF0205BE000280633F
:100A0200BF0305BE00028047BF0405BE0002802965
:100A1200BF8105BE00028055BF8205BE000280393B
:100A2200BF8305BE0002801CBF8456BE005374BF44
:100A320055DE4403F5DE020AD6747F55DE440CF51A
:100A4200DE020AD674BF55D64403F5D6020AD6741E
:100A52007F55D6440CF5D6807B74BF55D44403F53C
:100A6200D48071747F55D4440CF5D4806774BF551B
:100A7200D24403F5D2805D747F55D2440CF5D28006
:100A8200539000A874FFF0804B9000A874FFF08090
:100A9200439000A874FFF0803B900000E4F09000C7
:100AA20001F090009EE0FEA3E0FF8E048F05C3ECF0
:100AB2009402ED940040089000A87402F080159012
:100AC20000A8EEF0800E9000A874FFF0800690005F
:100AD200A874FFF09000A8E0FFBFFF0A9000A07486
:100AE200FFF075DCCF22EF24F740068FDD75DCC006
:100AF2002275DD0075DCC0229000A0E0FFBF050377
:100B0200020BD7BF06028003020BEB90009EE0FEB1
:100B1200A3E0FF8E048F05C3EC9408ED94009201CC
:100B220040067C087D0080048E048F05900187E0DA
:100B3200FFBF014590009BE0FDA3E0FEA3E0FF9014
:100B42000113EDF0EEA3F0EFA3F0900116ECF0E448
:100B5200A3F090000075F000C004121AC2D00490F5
:100B6200009BE0FDA3E0FEA3E0FF90009BEC2DF0D4
:100B7200E43EA3F0EFA3F0803B9000A2E0FEA3E0EE
:100B8200FF900113EEF0EFA3F07480A3F090011632
:100B9200ECF0E4A3F090000075F000C004121AC259
:100BA200D0049000A2E0FEA3E0FF9000A2EC2EF0A1
:100BB200E43FA3F08C067F0090009EE0FBA3E0FDE3
:100BC200EBC39EFBED9FFD90009EEBF0EDA3F08C3E
:100BD200DD63DC4022E5E35480FF90009EE0FDA34C
:100BE200E0ED4FF5E375DC022275DD0075DC0222D3
:100BF20075D30074FC55D24402F5D2229000A0E0D5
:100C0200FFBF200D30DE10120DBA75DD0085DCDC71
:100C12002275DD0043DC022220D903020CDCE5D977
:100C2200540FFFADD95305307E00BD0005BE000252
:100C3200801CBD1005BE00028045BD2005BE00021D
:100C42008053BD3006BE0003020CC1020CDAEFFE77
:100C520024FB5003020CDAEE2E2E900C6073020C71
:100C62006F020CDA020C75020C7B020CDA120BFE1C
:100C7200020CDA121046020CDA12161C020CDAEF1F
:100C8200FE24FB4053EE2E900C8D73804B804980E6
:100C92004780458043EFFE24FB403DEE2E900CA39F
:100CA200738008800B800E8011802D120AFA802832
:100CB200120BF28023121035801E12160B8019EFD0
:100CC200FE24FB4013EE2E900CCD73800880098029
:100CD20007800580031205B9C2D930D82075DC021D
:100CE20075D21275D41275D61275E300C2DAC2D962
:100CF200C2D89000A1E4F01210CC120DB010DA02AA
:100D02008020E5DA30E21EE5A220E7FB75A15575E9
:100D1200A1AA75A9C143870275A15575A1AA75A992
:100D2200002275D8FF2275E20053E27F43E2297563
:100D3200E30053E2BF53D1FB75D18043D10122437B
:100D4200E10443E10243E10143D81FD2EAD2AF22D8
:100D52007E087F008EEE8FEF7E107F008EE48FE59F
:100D62007E307F008EE68FE775EBCC75D21275D49C
:100D72001275D6127E007F008EEC8FED75EA4075FB
:030D8200DC02226E
:100D86009000CDE4F09000CEF0120539120D281235
:100D96000D52120D4175DD0075D30075D50075D75E
:100DA600009005DCE4F5F0021E4B900190E4F09013
:100DB6000192F0227F00C3E5DB9407920240067D94
:100DC600077E008004ADDB7E008F037C00C3EB9DB5
:100DD600EC64808EF063F08095F05017EF2489FD67
:100DE600E43401FE8F82758300E0FC8D828E83F0F1
:100DF6000F80C3227F008F057E00C3ED9407EE941B
:100E06000050188F057E00EF2489F582E43401F541
:100E160083E0FC8D828E83F00F80DB9000072290AA
:100E26000002E0FF900193F0E020E050900189E09D
:100E3600FCA3E0FDA3E0FEA3E0FFBCB03FBD043C85
:100E4600BE0039BF003675E200C2AF75890090005A
:100E5600D2E4F07438A3F090C350121EFC90C35035
:100E6600121EFC9000D2E0FEA3E0FFC007C0068E73
:100E7600828F83120069D006D00780FE229000D4AC
:100E8600E4F0900193E060069000D47401F09000C5
:100E9600D4E0F58222900192E07018900194E0FF70
:100EA600E060108FD553D4FC9001927401F090014C
:100EB60094E4F022AF82900193E060617D007E00B1
:100EC600900192E060240DBD00010E900005C00760
:100ED600C006C005121EFCD005D006D007C3ED948F
:100EE60050EE94C340DA75820022900194E0FEBE73
:100EF600200050207D0074402EFEE43DFDEE2410BF
:100F0600F582ED3400F583EFF0900194E02401F0D2
:100F160075820122C007120E9BD007809F75820042
:100F260022AFF0AE83E5829000D7F0EEA3F0EFA3F8
:100F3600F0900193E07003020FFD9000D5E0FEA350
:100F4600E0FFC3E49E74808FF063F08095F0400369
:100F5600020FFD7E007F00900192E060200EBE0031
:100F6600010F900005C007C006121EFCD006D00770
:100F7600C3EE9450EF94C340DE758200229000D7F2
:100F8600E0FDA3E0FEA3E0FF9000D5E0FBA3E0FCBC
:100F9600C3E49B74808CF063F08095F0509C9001C4
:100FA60094E0FABA200050498A017A00744029F97F
:100FB600E43AFAE92410F9EA3400FA8D828E838F36
:100FC600F0122343F8A3AD82AE839000D7EDF0EE86
:100FD600A3F0EFA3F089828A83E8F0900194E024DD
:100FE60001F01BBBFF011C9000D5EBF0ECA3F080D9
:100FF6009F120E9B020F4075820022900190E0F531
:101006008222900190E07003F58222900191E02403
:1010160010F582E43400F583E0FF900191E004F0DE
:10102600900190E014F0E0700353D4F38F822275A0
:10103600D50074FC55D44402F5D4900192E4F02214
:1010460030DE19900190E5DBF0900191E4F090011B
:1010560090E0600874F355D44408F5D422AF83E5D4
:10106600829000DAF0EFA3F09000DAE0FEA3E0FF52
:1010760090019AEEF0EFA3F022AF83E5829000DCB8
:10108600F0EFA3F09000DCE0FEA3E0FF900198EE05
:10109600F0EFA3F022AF83E5829000DEF0EFA3F03D
:1010A6009000DEE0FEA3E0FF90019CEEF0EFA3F0DF
:1010B600229000CFE0F582229000D0E0F5822290C7
:1010C60000D1E0F58222900195E4F0900197F0902E
:1010D60000CDF09000CEF0229000E0E4F09000A168
:1010E600E06008900195E09000E0F09000E0E0F507
:1010F6008222AFF0AE83E5829000E1F0EEA3F0EF3E
:10110600A3F09000E1E0FDA3E0FEA3E0FF74012D53
:10111600FAE43EFB8F048A828B838CF0122343FA17
:101126005302F07C00BA9019BC001674032DFDE43E
:101136003EFE8D828E838FF01223436004758202F9
:10114600229000E1E0FDA3E0FEA3E0FF74012DFA8A
:10115600E43EFB8F048A828B838CF0122343FA537E
:1011660002F07C00BA9019BC001674032DFDE43E13
:10117600FE8D828E838FF0122343700475820122C6
:101186009000E1E0FDA3E0FEA3E0FF0DBD00010E2F
:101196008D828E838FF0122343FD74F05DFC7E00FA
:1011A600BC8007BE0004758201225305F07F00BD96
:1011B600B007BF000475820322758200221210DE7A
:1011C600E582700122900195E0FF7E009001137484
:1011D60030F07400A3F0E4A3F0900116EFF0EEA354
:1011E600F09000AD75F000121AC29000CDE4F090B8
:1011F6000195E09000CEF053D6F3900195E4F0907F
:1012060000E4F09000E4E0FF9000CEE0FEC3EF9E25
:10121600400122EF24ADFFE43400FE8F057F008DF0
:10122600828E838FF0C007C006C0051210F8AC820C
:10123600D005D006D007BC015490019AE0F5F0A382
:10124600E045F070030213F874022DF9E43EFA8FBC
:101256000389828A838BF0122343F953017F740139
:101266002DF8E43EFA8F0388828A838BF01223439B
:10127600F853000FC001121281800D90019AE0C050
:10128600E0A3E0C0E088822215810213F8BC0202C6
:10129600800302134C900198E0F5F0A3E045F0704E
:1012A600030213F874012DF512E43EF5138F14852D
:1012B60012828513838514F0122343F89000CF74AD
:1012C6000F58F074022DF515E43EF5168F178515A7
:1012D600828516838517F0122343F99000D0747F18
:1012E60059F074032DF9E43EFA8F0389828A838BC1
:1012F600F0122343F89000D1747F58F089828A83D4
:101306008BF0122343F953017F8515828516838559
:1013160017F0122343FB53037F85128285138385BF
:1013260014F0122343FA53020FC001C003121338FC
:10133600800D900198E0C0E0A3E0C0E08A8222150B
:101346008115810213F8BC030280030213F8900191
:101356009CE0F5F0A3E045F070030213F874012D4C
:10136600F515E43EF5168F178515828516838517C4
:10137600F0122343F99000CF740F59F074022DF840
:10138600E43EF98F04888289838CF0122343FB9014
:1013960000D0747F5BF074032DFDE43EFE8D828EDB
:1013A600838FF0122343FB9000D1747F5BF08D8214
:1013B6008E838FF0122343FD53057F888289838CA9
:1013C600F0122343F853007F85158285168385170F
:1013D600F0122343FF53070FC005C0001213E78026
:1013E6000D90019CE0C0E0A3E0C0E08F8222158151
:1013F60015819000E4E0FF2404F0021209AFF0AE7C
:1014060083E5829000E6F0EEA3F0EFA3F07E007F86
:1014160000900197E060240EBE00010F90000AC004
:1014260007C006121EFCD006D0078E048F05C3EC3B
:101436009410ED942740DA758200229000E5E0FFD3
:10144600BF043A9000E6E0FCA3E0FDA3E0FE9001B5
:1014560013ECF0EDA3F0EEA3F0900116EFF0E4A389
:10146600F090007075F000C007121AC2D0078FD72F
:1014760053D6FC9001977401F075820122758200A3
:1014860022E5829000EBF09000A97409F09000EB41
:10149600E044909000AAF09000E9E0547F9000AB01
:1014A600F09000EAE0547F9000ACF09000E5740400
:1014B600F09000A975F000021403E5829000EDF0AB
:1014C6009000A97408F09000EDE044809000AAF026
:1014D6009000ECE0547F9000ABF09000ACE4F0900C
:1014E60000E57404F09000A975F000021403E5828B
:1014F6009000F0F09000A9740BF09000F0E044B07A
:101506009000AAF09000EEE0547F9000ABF09000BF
:10151600EFE0547F9000ACF09000E57404F090008A
:10152600A975F000021403E5829000F5F09000F131
:10153600E0FEA3E08E04A2E7CC33CC33CC540153B7
:10154600047F53067F9000F5E0FF9000EE7462F092
:101556009000EFEEF08F82C007C0041214F4D0049E
:10156600D0079000EE7463F09000EFECF08F82C02D
:10157600071214F4D0079000F3E0FDA3E08D03A258
:10158600E7CB33CB33CB540153037F53057F900016
:10159600EE7406F09000EFEBF08F82C007C00512E4
:1015A60014F4D005D0079000EE7426F09000EFED0D
:1015B600F08F820214F4E5829000F7F09000F6E0D6
:1015C600FF7E0074C02FFF741F3EFE8F0553057FFC
:1015D600EEA2E7CF33CF33CF540153077F9000F706
:1015E600E044E09000F8F09000F9EDF09000FAEF9A
:1015F600F09000FBE4F09000E57404F09000F875BC
:10160600F00002140375D70074FC55D64402F5D6D3
:10161600900197E4F02230DE13900195E5DBF0901F
:0D1626000196E4F074F355D64408F5D62281
:10163400AC82AD83AEF0FFEC4D4E4F60078C828DD3
:101644008302187422AC82AD83AEF0FFEC4D4E4F92
:101654007007900000E4F5F022C007C006C005C082
:10166400041217FCAA82AB83D004D005D006D0079D
:101674008A00EBF93395E0FAFBC004C005C006C04C
:1016840007888289838AF0EB121F8BAC82AD83AE0C
:10169400F0FFE58124FCF5818C828D838EF0EF22AE
:1016A400AC82AD83AEF0FF9000FCE0F8A3E0F9A3B8
:1016B400E0FAA3E0FBC3EC98ED99EE9AEF64808B1B
:1016C400F063F08095F040088C828D838EF0EF22D9
:1016D400E8C39CF8E99DF9EA9EFAEB9F8882898326
:1016E4008AF0C007C006C005C004121649A882A922
:1016F40083AAF0FBD004D005D006D007EC28FCED7B
:1017040039FDEE3AFEEF3B8C828D838EF022AC8263
:10171400AD83AEF0FF900100E0F8A3E0F9A3E0FA96
:10172400A3E0FBECC398F522ED99F523EE9AF5249A
:10173400EF9BF52590010CE0F526A3E0F527A3E047
:10174400F528A3E0F529900108E0F52AA3E0F52B9C
:10175400A3E0F52CA3E0F52DE526C3952AFCE527A7
:10176400952BFDE528952CFEE529952DFFC003C09A
:1017740002C001C000C004C005C006C007852282A3
:101784008523838524F0E52512235F8582268583BE
:101794002785F028F529E58124FCF581D000D001C6
:1017A400D002D003900104E0FCA3E0FDA3E0FEA37B
:1017B400E0FFECC398F8ED99F9EE9AFAEF9BFBC0C1
:1017C40000C001C002C0038526828527838528F0D6
:1017D400E529122144AC82AD83AEF0FFE58124FCFF
:1017E400F581E52A2CFCE52B3DFDE52C3EFEE52D9F
:1017F4003F8C828D838EF02290019EE0FCA3E0FD5D
:10180400A3E0FEA3E0FF8D00EEC313C813C8C31307
:10181400C813C8F9EF030354C049F9EF0303543F55
:10182400FA7B00EC6200ED6201EE6202EF6203E813
:1018340028FDE933FEEA33FF7C00E86204E962052F
:10184400EA6206EB6207EFC313F8E4F9FAFBE86215
:1018540004E96205EA6206EB620790019EECF0ED92
:10186400A3F0EEA3F0EFA3F053057F8C828D8322C7
:10187400AF83E582900110F0EFA3F0900110E0FE39
:10188400A3E0FF7D007C0090019EEEF0EFA3F0ED5D
:08189400A3F074804CA3F022C4
:10189C00AF82BF800040012275A15575A1AA43B14A
:1018AC000475A1007585C0EF2FF584900112E0F549
:1018BC008EE58630E60375869A75A15575A1AA53F7
:1018CC00B1FB75A10022AF827585C0EF2FF5847531
:0618DC00868E858E82223B
:1018E200C021C0E0C0F0C082C083C007C006C005EE
:1018F200C004C003C002C001C000C0D075D0001235
:101902000C1AD0D0D000D001D002D003D004D00520
:10191200D006D007D083D082D0F0D0E0D02132C020
:1019220021C0E0C0F0C082C083C007C006C005C0AD
:1019320004C003C002C001C000C0D075D0003098FE
:1019420005122534C298309905122574C299D0D057
:10195200D000D001D002D003D004D005D006D007E9
:10196200D083D082D0F0D0E0D02132C021C0E0C0FC
:10197200F0C082C083C007C006C005C004C003C057
:1019820002C001C000C0D075D00030C0051225C20F
:10199200C2C030C105122602C2C1D0D0D000D001CF
:1019A200D002D003D004D005D006D007D083D08295
:1019B200D0F0D0E0D02132C021C0E0C0F0C082C05F
:1019C20083C007C006C005C004C003C002C001C076
:1019D20000C0D075D0009001A4E0FEA3E0FFC007D4
:1019E200C0068E828F83120069D006D007D0D0D075
:1019F20000D001D002D003D004D005D006D007D049
:101A020083D082D0F0D0E0D02132C021C0E0C0F03B
:101A1200C082C083C007C006C005C004C003C002A4
:101A2200C001C000C0D075D0009001A6E0FEA3E0C6
:101A3200FFC007C0068E828F83120069D006D007CE
:101A4200D0D0D000D001D002D003D004D005D0062F
:101A5200D007D083D082D0F0D0E0D02132C021C0D4
:101A6200E0C0F0C082C083C007C006C005C004C089
:101A720003C002C001C000C0D075D0009001A2E036
:101A8200FEA3E04E600E9001A2E0F8A3E0F5838889
:101A920082120069D0D0D000D001D002D003D0048D
:101AA200D005D006D007D083D082D0F0D0E0D021AC
:101AB20032121F371200E61201B780FB7582002234
:101AC200AFF0AE83E582900118F0EEA3F0EFA3F041
:101AD200900118E0F519A3E0F51AA3E0F51BAA1985
:101AE200AB1AAC1B900113E0F8A3E0F9A3E0FF905E
:101AF2000116E0F51CA3E0F51DAD1CAE1D151C740E
:101B0200FFB51C02151DED4E6020888289838FF07F
:101B1200122343FEA3A882A9838A828B838CF0EED0
:101B2200121F6CA3AA82AB8380CF851982851A8388
:101B3200851BF022E582FF90295C93FEEF90293409
:101B420093FF70012290011BE0FD701BBF0209EEA2
:101B5200F4FC5292EC529322BF0402800122EEF472
:101B6200FC5296EC529722BD0214BF0207EE42923B
:101B7200EE429322BF0439EE4296EE429722BD0115
:101B820016BF0208EEF45292EE429322BF0421EEF7
:101B9200F45296EE429722BD0316BF0208EE42921D
:101BA200EEF4529322BF0408EE4296EEF4FE5297F0
:101BB20022AF82BF0102800FBF02028013BF030265
:101BC2008017BF0425801BE5C620E21E539DFB2221
:101BD200E5C620E315539DF722E5C630E20C539D7E
:101BE200FB22E5C630E303539DF722E582FF9029ED
:101BF2000C93FEEF90295C93FDEF90293493FF70D4
:101C020003F58222EE600D8E82C007C005121BB35F
:101C1200D005D0077E00BF0202800ABF03028009FE
:101C2200BF040C8008AE908006AEA08002AEB0ED7C
:101C32005E60047582012275820022E582FF90298E
:101C42000C93FEEF90295C93FDEF90293493FFEE05
:101C5200600D8E82C007C005121BB3D005D007A24B
:101C6200AFE433FEC2AFBF0202800ABF0302801795
:101C7200BF0436802490011CE07007EDF4FF5290FF
:101C82008027ED4290802290011CE07007EDF4FF66
:101C920052A08015ED42A0801090011CE07007ED6B
:0F1CA200F4FF52B08003ED42B0EE6002D2AF22E9
:101CB200E58290298493FFBFFF0475820022759A02
:101CC2000974FC5580FE74035F4EF580D284208433
:101CD200FD859F8222AF8290011B7401F08F82C02A
:101CE20007121B36D00790011DE0FDA3E0FE4D70E8
:101CF2000A90011CE4F08F82021C3D8D038E047455
:101D0200FF2C500B90011C7401F08F82021C3DEFDE
:101D120090290C93FA24FB4054EA2A901D217380E7
:101D22004C800680158024803353C6FB439D0443B8
:101D32009D10E59D30E4FB8D9C2253C6F7439D0820
:101D4200439D10E59D30E4FB8D9B2243C604439DD9
:101D520004439D10E59D30E4FB8D9C2243C608435D
:101D62009D08439D10E59D30E4FB8D9B22C3EB94BF
:101D720080EC9400500A90011CE4F08F82021C3D1A
:0B1D820090011C7401F08F82021C3DD8
:101D8E00C0D075D00808B8000D09B900090ABA000C
:101D9E00050BBB00010CD0D032A2AFC2AFA808A970
:101DAE0009AA0AAB0BAC8A8588F092AF30F5127493
:101DBE00012C600D08B8000909B900050ABA000126
:101DCE000BC3EC9406FCECC313FC75F07DE8A4F891
:101DDE00ADF075F07DE9A42DF9E435F0FD75F07DDB
:101DEE00EAA42DFAE435F0FD75F07DEBA42DFB7D14
:101DFE0000EC28F582E93DF583EA3DF5F0EB3D2256
:101E0E00A2AFC2AFA808A909AA0AAB0BAC0C92AF3D
:101E1E0075F020E8A4A8F075F020E9A428F582A8B2
:101E2E00F075F020EAA428F583A8F075F020EBA455
:101E3E0028F9A8F075F020ECA42889F02285822ECE
:101E4E0085832F85F030F531121DA785823285836B
:101E5E003385F034F535E52E452F4530453170018B
:101E6E0022A82EA92FAA30AB31853236853337857D
:101E7E003438853539E8494A4B60DBC003C002C0AF
:101E8E0001C000121DA7AC82AD83AEF0FFD000D012
:101E9E0001D002D003ECC39536FCED9537FDEE95DF
:101EAE0038FEEF9539FFC3EC94E8ED9403EE940001
:101EBE00EF940040A118B8FF0919B9FF051ABAFF2F
:101ECE00011B882E892F8A308B3174E82536F53622
:101EDE0074033537F537E43538F538E43539F539E7
:101EEE008536328537338538348539358087AE82ED
:101EFE00AF83C374019EE49F40022200C374029E0E
:101F0E00FE74009FFF00BE0005BF0002002200000D
:101F1E000000000000000000000000000000000EA5
:101F2E00BE00EB0FBF00ED002275A15575A1AA747E
:101F3E00F855B94406F5B975A100901388121EFC28
:101F4E00759E5D759D0074F055894402F58953C9DF
:0D1F5E00EF758C06C28DD2A9D28CD2AF22B5
:101F6C0020F71130F6138883A88220F509F6A88390
:0C1F7C007583002280FEF280F5F0223216
:011F89003225
:101F8B00C018858118AC82AD83AEF0FFE581240CBF
:101F9B00F581EF33E433FB6015A81808C3E49CF616
:101FAB00E49D08F6E49E08F6E49F08F6800EA81858
:101FBB0008A60408A60508A60608A607A81808E59B
:101FCB00182405F9E6F708E609F708E609F708E625
:101FDB0009F7E51824FAF8080808E630E717E518BA
:101FEB0024FAF8C3E496FC08E496FD08E496FE0890
:101FFB00E496FF8010E51824FAF886040886050895
:10200B0086060886078C02C003C002C005C006C046
:10201B0007E5182405F886820886830886F008E60B
:10202B00122082AC82AD83AEF0FFE58124FCF581FA
:10203B00D003E5182409F8A60408A60508A6060887
:10204B00A607EB601DE5182409F8C3E496FA08E42B
:10205B0096FB08E496FE08E496FF8A828B838EF04B
:10206B00800FE5182409F886820886830886F00815
:10207B00E6851881D01822C018858118AC82AD83F3
:10208B00AEF0FF05817B00A818087600E51824FA4E
:10209B00F8080808E6235401FA704CE51824FAF8FE
:1020AB00E626F608E633F608E633F608E633F6E5F9
:1020BB001824FAF8C3EC96ED0896EE0896EF0896FE
:1020CB00501AE51824FAF8080808E6C313F618E6C0
:1020DB0013F618E613F618E613F6800BA818080685
:1020EB00A81808860380A5E51824FAF8C3EC96ED2A
:1020FB000896EE0896EF08964015E51824FAF8ECCA
:10210B00C396FCED0896FDEE0896FEEF0896FFE5EC
:10211B001824FAF8080808E6C313F618E613F6189D
:10212B00E613F618E613F68B021BEA70BA8C828D57
:10213B00838EF0EF1581D01822C018858118AC82E0
:10214B00AD83AEF0FFE581240CF581EF33E433FB77
:10215B006015A81808C3E49CF6E49D08F6E49E08F5
:10216B00F6E49F08F6800EA81808A60408A6050832
:10217B00A60608A607A81808E5182405F9E6F70827
:10218B00E609F708E609F708E609F7E51824FAF86F
:10219B00080808E633E433FA6017E51824FAF8C3A5
:1021AB00E496FC08E496FD08E496FE08E496FF80AE
:1021BB0010E51824FAF886040886050886060886B2
:1021CB0007C003C002C004C005C006C007E5182441
:1021DB0005F886820886830886F008E6122241AC51
:1021EB0082AD83AEF0FFE58124FCF581D002D003F4
:1021FB00E5182409F8A60408A60508A60608A607EC
:10220B00EA6B601DE5182409F8C3E496FA08E49616
:10221B00FB08E496FE08E496FF8A828B838EF0809F
:10222B000FE5182409F886820886830886F008E6ED
:10223B00851881D01822C018858118C082C083C030
:10224B00F0C0E07A007B007E007F007D20A818089C
:10225B00080808E6235401FCA81808E626F608E649
:10226B0033F608E633F608E633F6EA2AFAEB33FBE5
:10227B00EE33FEEF33FFEC6003430201E51824FA63
:10228B00F8C3EA96EB0896EE0896EF0896401CE525
:10229B001824FAF8EAC396FAEB0896FBEE0896FEBA
:1022AB00EF0896FFA81808E64401F6DDA0A8180869
:1022BB0086820886830886F008E6851881D0182266
:1022CB0022AF82BF0200503EEF75F002A424A4FDA2
:1022DB00740135F0FE900120E0FBA3E0FC8D828EB3
:1022EB0083EBF0ECA3F0BF00028005BF0118800B5D
:1022FB00900122E024FF9288D2A822900122E0FFD5
:10230B0024FF928AD2AA22AF82BF02005028BF00BC
:10231B00028005BF01088004C2A88002C2AAEF7523
:10232B00F002A424A4FE740135F0FF8E828F837417
:07233B00CBF07422A3F02295
:1023430020F71430F6148883A88220F507E6A883C3
:1023530075830022E280F7E49322E022C01885818E
:1023630018C082C083C0F0C0E0E5812408F581E590
:10237300182409F92402F8AF180F8F06C000A80625
:102383008606E51824FAFDFC0C0CA8048604D0008C
:102393008EF0ECA4FEABF0A60608A6038F068E0013
:1023A30086068D048C0086048EF0ECA4FEABF0A7A9
:1023B3000609A703E51824092403F987068F047483
:1023C300032CF886048D038B0086038CF0EBA42E7C
:1023D300FEF78F0474022CF886048D03EB04F88651
:1023E300038CF0EBA42EF7E51824092402F98704E3
:1023F300098706198F0374022BF886038D028A005E
:1024030086028BF0EAA4ABF02CFCEB3EFEA704099A
:10241300A706198F03EB04F886038D02EA04F886F6
:10242300028BF0EAA4ABF02CFCEB3EFEA70409A759
:10243300068F0674032EF98F06EE04F886068D04C4
:1024430074022CF886048EF0ECA4F78F06EE04F9E0
:102453008F06EE04F886068D048C0086048EF0EC5D
:10246300A4FEABF0A70609A7038D0674032EF98F0C
:10247300068E0086068D0474032CF886048EF0EC19
:10248300A4F78D06EE04F98F068E0086068D04EC04
:1024930004F886048EF0ECA4FEABF0A70609A703AC
:1024A3008D0177008F017700E5182409F9E51824D9
:1024B30005F8E7F609E708F609E708F609E708F675
:1024C300191919A8180886020886030886060886BB
:1024D30007E5182405F8EA26F6EB0836F6EE083683
:1024E300F6EF0836F6E5182405F8E6F70908E6F7E7
:1024F3000908E6F70908E6F7191919E709E709E7EB
:1025030009E7E51824FAF88604088605088606080C
:102513008607E5182405F8EC26FCED0836FDEE08E1
:1025230036FEEF08368C828D838EF0851881D018A5
:012533002285
:102534009001A8E0FF7E000FBF00010E7410C0E000
:10254400E4C0E08F828E83122716AE821581158136
:102554009001A9E0FFEEB50701229001A8E0242331
:10256400F582E43401F583E599F09001A8EEF022B8
:1025740030034A9001AAE0FF9001ABE0FEEFB506FC
:1025840005A203C203229001ABE02433F582E434B4
:1025940001F583E0F5999001ABE0FF7E000FBF00E9
:1025A400010E7410C0E0E4C0E08F828E83122716FF
:0E25B400AE82AF83158115819001ABEEF0224F
:1025C2009001ACE0FF7E000FBF00010E7410C0E06E
:1025D200E4C0E08F828E83122716AE8215811581A8
:1025E2009001ADE0FFEEB50701229001ACE024437B
:1025F200F582E43401F583E5C1F09001ACEEF022FE
:1026020030044A9001AEE0FF9001AFE0FEEFB50664
:1026120005A204C204229001AFE02453F582E434FF
:1026220001F583E0F5C19001AFE0FF7E000FBF002E
:10263200010E7410C0E0E4C0E08F828E8312271670
:0E264200AE82AF83158115819001AFEEF022BC
:10265000C018858118AE82E583FF33E433FD60093D
:10266000C3E49EFBE49FFC80048E038F04E51824E2
:10267000FCF808E633E433FF600FE51824FCF8C3E8
:10268000E496FA08E496FE800AE51824FCF886022F
:10269000088606C007C005C002C0068B828C831264
:1026A00026C6AC82AE8315811581D005D007EF6DAB
:1026B000600DC3E49CFDE49EFF8D828F8380048CBB
:1026C000828E83D01822C018858118AE82AF837C99
:1026D000007D007B10EF235401FAEE2EFEEF33FF56
:1026E000EC2CFCED33FDEA6003430401E51824FC07
:1026F000F8C3EC96ED08964010E51824FCF8ECC3FE
:1027000096FCED0896FD430601DBCA8E828F83D0CE
:10271000182275820022C018858118AE82E583FFD9
:1027200033E433FD6009C3E49EFBE49FFC80048E28
:10273000038F04E51824FCF808E630E70FE51824B9
:10274000FCF8C3E496FE08E496FF800AE51824FC32
:10275000F88606088607C005C006C0078B828C83F2
:10276000122784AE82AF8315811581D005ED600DEF
:10277000C3E49EFCE49FFD8C828D8380048E828F57
:1027800083D01822C018858118AE82AF837D007C6B
:1027900000E51824FCF808E6235401FB702FE51827
:1027A00024FCF8E626F608E633F6E51824FCF8C320
:1027B000EE96EF08965011E51824FCF808E618C3C9
:1027C00013C613C608F680050C8C0580C4E51824D2
:1027D000FCF8C3EE96EF0896400DE51824FCF8EEE1
:1027E000C396FEEF0896FFE51824FCF808E618C328
:1027F00013C613C608F68D041DEC70D18E828F832C
:03280000D01822CB
:1028030012011001EF0201080912FFDF1200010299
:10281300030112000902A3000401008032080B0027
:102823000202020100090400000102020100052462
:1028330000100105240100000424020205240600FF
:10284300010705810308004009040100020A000092
:10285300000705020220000007058202200000098C
:102863000402000001010000092401000109000124
:1028730003090403000201030000072401000125EA
:1028830000062402010100062402020200092403B7
:1028930001030102010009240302040101010007ED
:1028A300050302200000052501010107058302201D
:1028B30000000525010103A3000403090404001A11
:1028C300034600610064002D0066006F007500720E
:1028D3000020007600310018001E0343006F006ED5
:1028E3000063006500700074002000260020004390
:0928F300006F00640065001E0086
:1028FC00303132333435363738394142434445462A
:10290C0000000000000000000000000000000001BA
:10291C0000000000000000000000000000000304A4
:10292C000000020000000000010101010101010191
:10293C00000002020202020202020000030303036F
:10294C00030303030000040404040404040400004F
:10295C00010204081020408000000102040810202D
:10296C004080000001020408102040800000010299
:10297C000408102040800000FFFFFFFFFFFFFFFF57
:10298C00FFFFFF00FFFF0102FFFFFFFFFFFFFFFF45
:10299C00FFFFFFFFFFFFFFFF03FFFFFFFFFFFFFF37
:0E29AC00B31A0B0E0F2000000000000A0200FC
:1029BA00160363006800650065006E002D00320092
:0829CA0032003200320000006F
:1029D20000E100000000080000000000000000000C
:0529E2000000000000F0
:0429E700010000806B
:0229EB000000EA
:0429ED00CB22CB220C
:0429F10000000000E2
:0429F50000000000DE
:00000001FF
